:1003E90049503131352E32392E3130392E313034B0
:1003F90000506F72743A3635343420202020202082
:1004090020004553503832363620696E69742E2ED5
:100419002E200053657420415020616E642053548E
:10042900412020004F4B00436F6E6E65637420744A
:1004390068652057494649004641494C00436F6E5B
:100449006E656374696F6E206661696C7300506CC8
:1004590065617365206F70656E2057494649005381
:1004690065742073696E676C65206C696E6B20001A
:1004790053657420706173737468726F756768204F
:1004890000436F6E6E6563742073657276657220C2
:1004990020005365742073656E6420646174612063
:1004A9002020003E00543A00483A002552480048AE
:1004B90051534A002D2D2D2D002D2D00444B4A441A
:1004C90051310052542B4F4B3A4A4451312D4F5020
:1004D900454E000047424A4451310052542B4F4B7C
:1004E9003A4A4451312D434C4F5345440000444B43
:1004F9004A4451320052542B4F4B3A4A4451322DFF
:100509004F50454E000047424A4451320052542B45
:100519004F4B3A4A4451322D434C4F534544000006
:100529004C542B004A4451314F4E20004A4451311A
:100539004F4646004B513A005365742054656D701F
:10054900206C696D69743A20004C3A0020200053F0
:1005590065742048756D69206C696D69743A20006D
:10056900536574204B513A20202020202020202040
:1005790000533A002500000E0A0E00000000303139
:10058900323334353637383941542B43574D4F447C
:10059900453D330D0A000041542B43574C41500D42
:1005A9000A000041542B43574A41503D2231313210
:1005B9003233333434222C2231313232333334342E
:1005C900220D0A000041542B4349504D55583D30E6
:1005D9000D0A000041542B4349504D4F44453D31CC
:1005E9000D0A000041542B43495053544152543D84
:1005F90022544350222C223131352E32392E3130BA
:10060900392E313034222C363534340D0A0000416C
:0D061900542B43495053454E440D0A000038
:100DC800017500C10001212801770A017E460176DC
:100DD8000A017932017C00014C64024A00000122B8
:100DE8000020242653542B57443A2D2DA1E63B735B
:100DF800643A2D2D2552483B6B713A2D2D2D253BFC
:100E08006E7A3A2D0D000000202451595A2B574470
:100E18003A2D2DA1E63B73643A2D2D2552483B6BA4
:0F0E2800713A2D2D2D253B0D000000000000001C
:10107E007F3812000E7F3812000E7F3812000E7F5E
:10108E000C12000E7F0612000E7F0112000E7F64FE
:05109E007E000210F3CA
:10000E00C2A61210EBD2A77F0D7E001210F3C2A76C
:01001E0022BF
:0611960014F91208D1FF5C
:10119C00D2A61210EBD2A77F0D7E001210F3C2A7BD
:0111AC002220
:0F1055007D0275F00A84E5F090058793FB7F0C10
:021064008B0FF0
:10106600EFBD01062480F510800424C0F510AF10F2
:0810760012000EAF0F02119CE5
:080FB2007BFF7A04790BE4FFD8
:060FBA008B0F8A10891163
:100FC000EFBD01062480F512800424C0F512AF1293
:100FD00012000EAB0FAA10A9111208D1600D051155
:0B0FE000E5117002051012119680E868
:010FEB0022E3
:080FEC008F088B098A0A890BAA
:100FF400E50833333354F8F508E4F50CE508250C1B
:101004004440FF12000EAB09050BE50BAA0A70025F
:0E101400050A121196050CE50CC3940840DE87
:0110220022AB
:0810EB00C2A58F807F037E0087
:1010F300D3EF9400EE9400400DE4FD0DBD02FCEF30
:061103001F70ED1E80EAE2
:0111090022C3
:1011AD00EF1FAA0670011E4A600BE4FDEDC3947D8E
:0511BD0050EE0D80F76B
:0111C200220A
:0711C300EFC313FFDFFE2262
:10102300E4FD757D0220B207AF7D057DEF70F67F8D
:10103300231211C3EE25E0FE30B203430601757D92
:101043000230B207AF7D057DEF70F60DBD08D3AF5B
:011053000696
:011054002279
:100F2400C2B27F147E001211ADD2B27F3C1211C343
:100F340020B235757D0220B207AF7D057DEF70F6D6
:100F4400757D0230B207AF7D057DEF70F612102378
:100F54008F4D1210238F4F1210238F4E1210238F98
:090F6400501210238F78D2B22242
:1010A300E54E2550FFE433FE7C00EF254DFFEC3E7B
:1010B300FEEF254FFFEC3EFEEFB57806ECB50602DA
:0410C300D322C3224F
:101164007C64EF4E60131CEC60087D0A1DED60F694
:0911740080FAEF1F70EC1E80E907
:01117D00224F
:080003008F993099FDC299228A
:0C110A00FB7A0079261211167A00795148
:101116001208D1FF600C120003740129F9E43AFAAF
:0311260080EE2236
:03002300020F6D5C
:0D0F6D00C0E0C083C082C0D075D000C007B6
:100F7A00E4FFC2AC30981BC298E575C39464501064
:100F8A0074002575F582E43400F583E599F005755A
:0D0F9A007F000FEFC394C840DBD200D2AC43
:0B0FA700D007D0D0D082D083D0E03241
:10114700E4F57574002575F582E43400F583E4F061
:0D1157000575E575B464ECE4F575C2002281
:0610C7007BFF7A04792D85
:1010CD008B0F8A1089118B158A1689177B017A006F
:0E10DD007900120C53E94A4B6002D322C32261
:100626007BFF7A0379E97D01E4FF120FBA7BFF7A3B
:100636000379FA7D02E4FF120FBA7F967E0012114B
:10064600647D02120FB2D2AC1211477BFF7A047995
:100656001C7D02E4FF120FBA7BFF7A057991121115
:10066600161210C7400320A2F81211477BFF7A0426
:1006760079307D02E4FF120FBA7BFF7A0579AC125E
:1006860011161210C7400E7BFF7A0479411210CD65
:10069600400320A2ED7BFF7A0479411210CD504829
:1006A6007BFF7A0479467D01E4FF120FBA7BFF7A5D
:1006B6000479577D02E4FF120FBA1210C7402430A6
:1006C600A2211211477BFF7A0579AC12111612107E
:1006D600C740E77BFF7A0479411210CD40DC30A297
:1006E600D980EB7D01120FB21211477BFF7A047994
:1006F600687D02E4FF120FBA7BFF7A0579CE1211EC
:10070600161210C7400320A2F81211477BFF7A0485
:1007160079797D02E4FF120FBA7BFF7A0579DD1243
:1007260011161210C7400320A2F81211477BFF7A58
:1007360004798A7D02E4FF120FBA7BFF7A0579ED10
:100746001211161210C7400320A2F81211477BFFA0
:100756007A04799B7D02E4FF120FBA7BFF7A067951
:10076600181211167BFF7A0479AC1210CD400320C3
:0E077600A2F27F0112000E7F647E000210F3DB
:10117E00759850438920438780758DFA758BFAD206
:08118E008EC2ACD2AF020626AE
:100EDA00EFC394304010EFD39439500AEF3395E0C2
:100EEA00FEEF24D0802AEFC394414010EFD39446FA
:100EFA00500AEF3395E0FEEF24C98014EFC39461E2
:100F0A004014EFD39466500EEF3395E0FEEF24A918
:0A0F1A00FFEE34FFFE22E4FEFF228A
:0B0BCA007516007517007518087D02F5
:080BD5008B0F8A1089118D12AB
:100BDD00E4F519F51AF51BF51CC3E51C9512E51B7B
:100BED0094005057AB0FAA10A911E51C2401FFE486
:100BFD00351B8F82F5831208EAFF120EDAAD07ABB3
:100C0D000FAA10A911851C82851B831208EAFF12F9
:100C1D000EDAEFC454F02DAB13AA14A915851A8260
:100C2D00851983120929051AE51A7002051974022E
:100C3D00251CF51CE4351BF51B809EAB16AA17A9C8
:060C4D0018E51A02091768
:041129007F077E00BE
:10112D007C64EF4E60131CEC60087D0A1DED60F6CB
:09113D0080FAEF1F70EC1E80E93E
:011146002286
:100E3800E4FDFBFAC296D297C295D296C296D29793
:100E4800D296C296EE4F24FF9297D296C296D29728
:100E5800D296C296EB25E0FB3097034303010DBD04
:100E680008EEE4FDEAC313FA309703430280D296F2
:100E7800C2960DBD08EED296D297D295EBB5020276
:040E8800FF227F00C6
:010E8C002243
:100026007BFF7A0479AE7D01E4FF120FBA7BFF7A7B
:100036000479B17D017F09120FBA7BFF7A0479B486
:100046007D017F0D120FBAE4FB7D017F041210645F
:100056007B437D017F051210641210A34003020149
:10006600D5E54E75F00A8490058793FB7D017F02E6
:10007600121064E54E75F00A84E5F090058793FB4F
:100086007D017F03121064E54D75F00A84900587A3
:1000960093FB7D017F0B121064E54D7D0112105715
:1000A600E521D3954E4014E577D3954E500DE57E68
:1000B600954D4007E576D3954D402CC2A0E521D35A
:1000C600954E4007E577D3954E4004C2B78002D2DD
:1000D600B7E57ED3954D4007E576D3954D4004C2EE
:1000E600B6800AD2B68006D2A0D2B6D2B7854E7BEB
:1000F600854D7AE54E75F00A8490058793F52CE5D3
:100106004E75F00A84E5F093F52DE54D75F00A84F9
:1001160093F534E54D75F00A84E5F093F535E5255C
:1001260075F0648493F53DE52575F06484E5F07516
:10013600F00A8493F53EE52575F00A84E5F093F51B
:100146003F20B4047F3180027F308F45E52175F072
:100156000A8490058793F557E52175F00A84E5F042
:1001660093F558E57675F00A8493F55FE57675F0B4
:100176000A84E5F093F560E57975F0648493F56893
:10018600E57975F06484E5F075F00A8493F569E520
:100196007975F00A84E5F093F56AE522B40A147BD2
:1001A600FF7A0479B81210CD4009E4F52212110A3B
:1001B600121147E57BB54E10E57AB54D0B7BFF7AFC
:1001C6000479B81210CD503B7B0012110B80317BA5
:1001D600FF7A0479BD7D017F02120FBA7BFF7A0494
:1001E60079C27D017F0B120FBAE57B700B7BFF7A1C
:1001F6000479B81210CD5008E4F57BF57A12110A8D
:1002060012114720000302036E7BFF7A0479C512A0
:1002160010CD500E757C01C2B47BFF7A0479CC02F6
:1002260003687BFF7A0479DD1210CD500E757C01D0
:10023600D2B47BFF7A0479E40203687BFF7A0479FF
:10024600F71210CD500EE4F57CC2B57BFF7A047927
:10025600FE0203687BFF7A05790F1210CD500EE47B
:10026600F57CD2B57BFF7A0579160203687BFF7AA7
:0B0276000579291210CD400302036B34
:10028100E4F508750901750A00750B00750C017517
:100291000D00750E64E50C850D83850E8265097070
:1002A1000AE50B65827004E50A65836045AB09AA1E
:1002B1000AA90B1208D1B44C2CE92401F9E43AFA49
:1002C100E50C850D83850E826B7008E965827003EC
:1002D100EA65836010AB09AA0AA90B900001120814
:1002E100EA6454600D7401250BF50BE4350AF50A37
:1002F10080A3AB09E50B2403F9E4350AFA75130071
:10030100751400751521120BCAAB09E50B2405F90B
:10031100E4350AFA751300751400751579120BCAC4
:10032100E52175F00A8490058793F557E52175F06D
:100331000A84E5F093F558E57975F0648493F568DE
:10034100E57975F06484E5F075F00A8493F569E563
:100351007975F00A84E5F093F56A7B007A007926D5
:0A0361001211167A007951121116DC
:10036B00121147E525C395794006E57C7002C2B4AE
:10037B00E525C395795006E57C7002D2B47BFF204E
:10038B00B4067A05792D80047A0579357D02E4FF70
:10039B00120FBA7BFF7A05793D7D027F09120FBAE6
:1003AB00E52575F0648490058793FB7D027F0C1225
:1003BB001064E52575F06484E5F075F00A8490050A
:1003CB008793FB7D027F0D121064E52575F00A847F
:0E03DB00E5F090058793FB7D027F0E02106413
:03000B00020E8D55
:100E8D00C0E0C0F0C0D075D000C000C004C005C027
:100E9D0006C007758CFC758A177F0A7E0012112D0E
:100EAD00054BE54B7002054AAE4AFF7C047D4C12A2
:100EBD00094BED4C70060522F54AF54BD007D006CF
:0D0ECD00D005D004D000D0D0D0F0D0E0325D
:1009D600054C7BFF7A0579417D01E4FF120FBA7B56
:1009E600FF7A0479B17D027F01120FBAE4FB7D0222
:1009F6007F051210647B437D027F061210647BFF25
:100A06007A0579527D027F09120FBAE4FB7D027FD7
:100A16000D1210647B437D027F0E121064E54C209C
:100A2600E044E52175F00A8490058793FB7D027FFB
:100A360003121064E52175F00A84E5F090058793AA
:100A4600FB7D027F04121064E57775F00A84900539
:100A56008793FB7D027F0B121064E5771210557F9A
:100A6600017E000211ADE52424FE600F0470197B9F
:100A7600FF7A0579557D027F03800A7BFF7A057927
:090A8600557D027F0B120FBA220C
:100A8F00054C7BFF7A0579587D01E4FF120FBA7B85
:100A9F00FF7A0479B17D02E4FF120FBA7BFF7A046B
:100AAF0079B47D027F04120FBA7BFF7A0579527DEC
:100ABF00027F09120FBA7BFF7A0479B47D027F0D92
:100ACF00120FBAE54C20E044E57E75F00A849005DC
:100ADF008793FB7D027F02121064E57E75F00A8416
:100AEF00E5F090058793FB7D027F03121064E57696
:100AFF0075F00A8490058793FB7D027F0B121064BB
:100B0F00E5761210557F017E000211ADE52424FC1D
:100B1F00600F0470197BFF7A0579557D027F028083
:0F0B2F000A7BFF7A0579557D027F0B120FBA22E0
:100CD500054C7BFF7A0579697D01E4FF120FBA7B2C
:100CE500FF7A05797A7D02E4FF120FBA7BFF7A0558
:100CF500797D7D027F04120FBAE54C20E02DE57960
:100D050075F00A8490058793FB7D027F02121064BB
:100D1500E57975F00A84E5F090058793FB7D027F00
:100D2500031210647F017E000211ADE52424FC60EE
:100D35000F0470197BFF7A0579557D027F02800AC1
:0E0D45007BFF7A0579557D027F0B120FBA22D3
:1007840020B32A12112920B321D2B6D2B7D2A0E5C0
:100794002420E00C7F0112000E7F647E001210F30F
:1007A4000524E524B40803E4F52430B3FD30A103A3
:1007B40002083F12112920A16AE5246066B40109E8
:1007C400E521C3946350020521E524B4021CE577B6
:1007D400C394635015E5772401FFE433FEC3EF951A
:1007E400217480F86E9850020577E524B40309E576
:1007F4007EC394635002057EE524B4041CE576C3ED
:1008040094635015E5762401FFE433FEC3EF957E2F
:100814007480F86E9850020576E5246405701C0512
:1008240079801820A115E5247011757C01B2B47B80
:10083400FF7A0479CC12111612114730A203020870
:10084400D012112920A265E5246061B4011BE521C1
:100854006017E5772401FFE433FED3E5219FEE64BE
:1008640080F874809840021521E524B40206E577E7
:1008740060021577E524B4031BE57E6017E5762452
:1008840001FFE433FED3E57E9FEE6480F874809824
:100894004002157EE524B40406E57960021579E585
:1008A4002464057027E579602315792220A21DE5CB
:1008B400247019F57CB2B57BFF20B5067A0479FE65
:0D08C40080047A05791612111612114722D0
:100D530020A2077F647E0012112D12107E7BFF7A82
:100D630005797FE4FF120FEC12117E120784E5244C
:100D73007023054CE54CC3946440F0E4F54C120F2A
:100D830024E4FFFE120E388F237F01120E388F25C5
:100D930012002680D6E52464016005E524B402052B
:100DA3001209D680C6E52464036005E524B404056E
:100DB300120A8F80B6E52464056005E524B406AB0A
:050DC300120CD580A612
:03000000020B3EB2
:0C0B3E00787FE4F6D8FD75817E020B85FF
:1008D100BB010689828A83E0225002E722BBFE0225
:0908E100E32289828A83E4932258
:1008EA00BB010CE58229F582E5833AF583E02250C3
:1008FA0006E92582F8E622BBFE06E92582F8E2220D
:0D090A00E58229F582E5833AF583E4932226
:10091700BB010689828A83F0225002F722BBFE01BF
:02092700F322B9
:10092900F8BB010DE58229F582E5833AF583E8F004
:10093900225006E92582C8F622BBFE05E92582C8B0
:02094900F22298
:10094B00C2D5EC30E709B2D5E4C39DFDE49CFCEEC7
:10095B0030E715B2D5E4C39FFFE49EFE120981C3B5
:10096B00E49DFDE49CFC800312098130D507C3E4B0
:06097B009FFFE49EFE2236
:100C53008B128A138914AB15AA16A9171208D1602F
:100C630063AB12AA13A9141208D1605F8515188506
:100C7300161985171A8B1B8A1C891DAB18AA19A96B
:100C83001A1208D1FF6023AB1BAA1CA91D1208D19D
:100C93006F701704251AF51AE43519F5197401252F
:100CA3001DF51DE4351CF51C80D1AB18AA19A91A32
:100CB3001208D17002800D74012514F514E4351364
:100CC300F513809DAB12AA13A914227B007A007935
:020CD3000022FD
:100B4A00020D53E493A3F8E493A34003F68001F261
:100B5A0008DFF48029E493A3F85407240CC8C333AC
:100B6A00C4540F4420C8834004F456800146F6DF7B
:100B7A00E4800B0102040810204080900DC8E47E36
:100B8A00019360BCA3FF543F30E509541FFEE49370
:100B9A00A360010ECF54C025E060A840B8E493A337
:100BAA00FAE493A3F8E493A3C8C582C8CAC583CA62
:100BBA00F0A3C8C582C8CAC583CADFE9DEE780BE1A
:010E370000BA
:10098100BC000BBE0029EF8DF084FFADF022E4CC5A
:10099100F875F008EF2FFFEE33FEEC33FCEE9DEC23
:1009A100984005FCEE9DFE0FD5F0E9E4CEFD22ED69
:1009B100F8F5F0EE8420D21CFEADF075F008EF2FB3
:1009C100FFED33FD4007985006D5F0F222C398FDA4
:0509D1000FD5F0EA2241
:00000001FF
